:020000040000fa
:080000000002040000000000f2
:020000040000fa
:10000800b402000094020000980200009c02000064
:10001800a0020000b4020000b4020000b402000014
:10002800b4020000b4020000b4020000b4020000f0
:10003800b4020000b4020000b4020000b4020000e0
:10004800d01f0000b4020000b40200005e2a0000c5
:100058001e2a00008a1f0000b4020000b40200003b
:10006800b4020000b4020000b4020000b4020000b0
:10007800b4020000b4020000b4020000b4020000a0
:10008800b4020000b4020000b4020000b402000090
:10009800b4020000b4020000b4020000b402000080
:1000a800b4020000b4020000b4020000b402000070
:1000b800b4020000b4020000b4020000b402000060
:1000c800b4020000b4020000b4020000b402000050
:1000d800b4020000b4020000b4020000b402000040
:1000e800b4020000b4020000b4020000b402000030
:1000f800b4020000b4020000b4020000b402000020
:10010800b4020000b4020000b4020000b40200000f
:10011800b4020000b4020000b4020000b4020000ff
:10012800b4020000b4020000b4020000b4020000ef
:10013800b4020000b4020000b4020000b4020000df
:10014800b4020000b4020000b4020000b4020000cf
:10015800b4020000b4020000b4020000b4020000bf
:10016800b4020000b4020000b4020000b4020000af
:10017800b4020000b4020000b4020000b40200009f
:10018800b4020000b4020000b4020000b40200008f
:10019800b4020000b4020000b4020000b40200007f
:1001a800b4020000b4020000b4020000b40200006f
:1001b800b4020000b4020000b4020000b40200005f
:1001c800b4020000b4020000b4020000b40200004f
:1001d800b4020000b4020000b4020000b40200003f
:1001e800b4020000b4020000b4020000b40200002f
:0801f800b4020000b402000093
:020000040000fa
:10020800b4020000a4020000a8020000ac02000032
:10021800b0020000b4020000b4020000b402000002
:10022800b4020000b4020000b4020000b4020000ee
:10023800b4020000b4020000b4020000b4020000de
:10024800d01f0000b4020000b40200005e2a0000c3
:100258001e2a00008a1f0000b4020000b402000039
:10026800b4020000b4020000b4020000b4020000ae
:10027800b4020000b4020000b4020000b40200009e
:10028800b4020000b4020000b4020000b40200008e
:10029800b4020000b4020000b4020000b40200007e
:1002a800b4020000b4020000b4020000b40200006e
:1002b800b4020000b4020000b4020000b40200005e
:1002c800b4020000b4020000b4020000b40200004e
:1002d800b4020000b4020000b4020000b40200003e
:1002e800b4020000b4020000b4020000b40200002e
:1002f800b4020000b4020000b4020000b40200001e
:10030800b4020000b4020000b4020000b40200000d
:10031800b4020000b4020000b4020000b4020000fd
:10032800b4020000b4020000b4020000b4020000ed
:10033800b4020000b4020000b4020000b4020000dd
:10034800b4020000b4020000b4020000b4020000cd
:10035800b4020000b4020000b4020000b4020000bd
:10036800b4020000b4020000b4020000b4020000ad
:10037800b4020000b4020000b4020000b40200009d
:10038800b4020000b4020000b4020000b40200008d
:10039800b4020000b4020000b4020000b40200007d
:1003a800b4020000b4020000b4020000b40200006d
:1003b800b4020000b4020000b4020000b40200005d
:1003c800b4020000b4020000b4020000b40200004d
:1003d800b4020000b4020000b4020000b40200003d
:1003e800b4020000b4020000b4020000b40200002d
:0803f800b4020000b402000091
:020000040000fa
:100400002f8920000edf20000e0188000000000070
:1004100000012000200288000c000700a0b6220086
:100420000100200011000700000020000000e00093
:10043000020032000000020000000000fc1e02006a
:10044000000000000040da000000fe004440a90067
:1004500060e920000000e0000300320000002000fe
:10046000a00188004440a800000006009101880017
:10047000800078000000eb0015003700e2804000ab
:1004800032a0b4009101ba00e280400032a0b40072
:100490009102ba00e280400032a0b4000002eb00fa
:1004a000472bde00f507b200602ce10004003a00a3
:1004b0000059eb008301e900fdff3e000400370016
:1004c0006128e100010032000082eb000400070017
:1004d0001101ba000200e000e8ff3a000000060047
:1004e0003159ba008301e9000c0032002159ba00e9
:1004f0008301e900080032000400e00003003a0034
:10050000e280400032a0b400f5ff370011d9ba00f4
:100510008301e900faff3a008100e800e180400031
:1005200032a0b400000006008020a900ffff3700c1
:100530008060a900ffff37008040a900ffff37005f
:100540008080a900ffff37008020a900ffff37004f
:100550008060a900ffff37008040a900ffff37003f
:100560008080a900ffff37000040da000000fe0095
:100570006900e100040035006d00e1000300340073
:100580000002b1000100320000000500100005006b
:1005900003f0a200889fbe008a9fbe008c1f7800d7
:1005a0001d010700240133006450e1004f003200b8
:1005b0006420e1005200320003826c0007003b001f
:1005c0000905d0000306d000820f54000c065d0020
:1005d0000200390002003200890178000306780029
:1005e0008582550004003d000003fd008103fd00ed
:1005f0008502ea008b854200840f720002003b00f6
:1006000060001000e08018006011b8000005eb00e9
:100610007a28e1000a00390006007800c75ddd0095
:10062000f707b200878075002d00370082817100c6
:100630000a017800610560008180d1000080d3004c
:100640008502e900f9ff3b0006044000878448006a
:1006500002003b0060041400e0841c000988a30031
:10066000070032008a81710082817100610164009b
:100670008904d1000884d3008b05e80017003700f7
:100680000978a30013003a000b00e00013003400c7
:100690008b05e9000804440089844c000a44740076
:1006a0000978a3000d003a000b00e00007003400b9
:1006b0008b05e9000804440089844c0001003a00dd
:1006c0000b0020000978a300f7ff32000001eb00c7
:1006d00002003700828171000a0178009300070050
:1006e0000cf0a70001f0a000dc0037006420e1005e
:1006f00002003a00838f6c00dc0033000801be006a
:100700000200be00d5003700889fbe008a9fbe0051
:100710008c1f7800c0000700c700330003866c0000
:100720006450e1002e0032006420e100330032000a
:100730006150e1002f0032006120e1003100320001
:1007400085855500eb07b000090020000804200053
:10075000050037000804440089844c000a00310079
:100760000603430087834b000001530081815b0037
:10077000f8ff33000203be000800a0000804440094
:1007800089844c00f6ff3900c639dd00830173000f
:1007900001003200130020008904d1000884d30036
:1007a0000998a300050032000800a7000300a0007c
:1007b0008904d1000884d3008b05e8008904d100a6
:1007c0000884d3000001eb000281d200570007002b
:1007d00001f0a1000cf0a70001f0a0009f0037007d
:1007e0006420e100a10032000801be000200be004a
:1007f000f7ff37006120e1009c0032006000b80084
:10080000f3ff37000000200001f82700f0ff370059
:1008100014002000cc003700f4ff2f00ca0037007e
:100820000001be00670007000470a70003f0a100ec
:100830006509b100160032000d0035006828e1009e
:1008400006003500f0ff2f00f1ff27000300e00055
:1008500013003b00010028000000050000004000dc
:10086000818048008502e900fcff3a00080037005b
:10087000f88f420002003c008000eb000000050001
:100880008100d1000080d3008502e800fcff3a001f
:100890000300e00002003b0060001000e080180050
:1008a000000006000001be00460007000470a7001b
:1008b00003f0a10003f8a30013003a006509b1009a
:1008c00010003200090035006928e10002003500ff
:1008d0000100280000000500000040008180480061
:1008e0008502e900fcff3a0000000600f88f420094
:1008f000050035008100d1000080d3008502e800aa
:10090000fcff3a00000006008000eb00000005003c
:100910004f89de0082017800a60037006011b80020
:10092000b400370004002000870037008100200059
:10093000618055000b003d000b00200061fe2f0080
:100940000100e1001d00340082817100610164003a
:100950008904d1000884d3000000e800faff3a00bf
:10096000710020006100640003007000020060005c
:100970000900320061044400e0844c000988a500ad
:10098000050032008b05e8006808e10002003a002b
:100990008904d1000884d300f20f20000258e1003e
:1009a00005003d00c75ddd00f907b20089807500d4
:1009b00008007800000006000bf827008b00780084
:1009c00000000500c70ade00f107b200f50fb20013
:1009d00008003200e1cf4200020032000170a000a6
:1009e00024000500810f700001003200040805009a
:1009f00044000500810f700002003a001400050059
:100a00008502e9000000400081c04800fcff3b0077
:100a10000170a000240005000004be00e9ff0700eb
:100a20000003be000405be000200be00e5ff070093
:100a3000844f7500000006000200be006450e10013
:100a4000050036006420e100020036000968a300ba
:100a500001003a000800be000160a0004f067800c7
:100a60004f05be004f04be0000000600f0ff2f003f
:100a7000f1ff2700f9ff3700889fbe008a9fbe0064
:100a80008c1f7800e4ff0700ebff330003866c0047
:100a90006450e100240032006420e10027003200ad
:100aa0006150e100220032006120e10021003200ab
:100ab0008b854200eb07b1000134b800003ab80062
:100ac0000804420089844a00013ab8000030b800a6
:100ad0008880400009014a00040033000000400003
:100ae00081804800020149008b05e900c909dd0049
:100af000830170000100320013002000c814de00e2
:100b00004814dd004709de001200b200c808de000c
:100b10000884700085ff070001f0a1000cf0a70019
:100b200001f0a000cdff37006120e100cfff3200cf
:100b30000801be000200be00f7ff37006150e1006f
:100b4000fcff3a00c9ff3700889fbe008a9fbe00a5
:100b5000841f7800b0ff07004f00780011003300b9
:100b6000f0ff2f00838f6c0006003b00040565003a
:100b70000a00a7000800370009f0a60010002000b6
:100b800008003700820f5400838f5c000300390097
:100b90001000200001003e000000200009f0a70026
:100ba0000000ea004f05be004f04be000000e00058
:100bb00000000600881f7800030478000300e000ae
:100bc00007003d0060001000e0801800600119007f
:100bd000e081190002003b0001f02d000300370006
:100be0000400070008f0a70001f0a0004f047800ff
:100bf00000000600889fbe008a9fbe000082700031
:100c00000402710004827100260032000004be005c
:100c10000200be006011b8006b09200095022000a0
:100c20000182cf000a0039000541b1000082cf00e7
:100c3000070039000541b1000982cf0004003900e6
:100c40000541b1000882cf00010039000541b10023
:100c500005425200120032000a003b0082817100fe
:100c6000610164008100d1000080d3008984d30039
:100c70000884d3008b05e8000442e800f7ff3a003f
:100c8000070037000804440089844c000000480035
:100c9000818048008b05e9000442e900f9ff3a0031
:100ca00022ff07004f05be004f04be0000000600f3
:100cb000ea874700889fbe008a9fbe008c9fbe00c7
:100cc0008e1f780081057800e08f5500010032000a
:100cd000800d7800000578008a0478000905780006
:100ce0003a06fb000c00780021fe0700e00f5000e0
:100cf000f9ff3a00d4022000840f560003003a00a6
:100d00008a04780018c0b30005003700004478005a
:100d1000b4022000840f560001003a008a047800d3
:100d20006000b8008006eb000d0578000ecdb30022
:100d3000e4c2b300010037008904e80089027800aa
:100d40007003640004003a00994f120002003a0058
:100d50000844a000f8ff3700194678000c03fb0098
:100d60000603b100e90f530017003e000814a0006d
:100d70008802fb00e98f56000f003200f08262000b
:100d8000010032000a05e9008d06e800a2002000fb
:100d900003002000e4b79f00ff0007000e43460059
:100da0000683fb00070020000000430081804b0009
:100db0006fb29700e0ff3700f0826200deff3a007a
:100dc0000a05e800dcff370054c6b300844f560024
:100dd000040032008006eb0054c4b300844f560078
:100de0002e003a0059427800d5c2b300854f520018
:100df00002003a000834a00003003700b5c2b30077
:100e0000854f520001003a008904e80007c3b3008f
:100e100089027800850478003943780004c3b30060
:100e2000874f5300faff32008603fb000703b1002f
:100e30008006eb00e98f530015003e008446530006
:100e40008d86fb0089027800154378008603fb003d
:100e50000703b100e98f53000d003e006a69b90035
:100e6000844653008d86fb008286460055437800f9
:100e70008603fb000703b100e98f530004003e0026
:100e80006a69b900844653008d86fb00828646005d
:100e900068026400010032008d06ea00e08f550010
:100ea000030032006202640001003200850d780008
:100eb00097fe07000002be000003be006011b800ec
:100ec000e4b79f00d5b79f00f4b79f0087bf9f008e
:100ed0004ffe0700000178006000b8006fb2970075
:100ee000dfb297007fb397008fbb9700e00f5100f0
:100ef000600032000a85460032f82f00820f55004c
:100f000003003d002402200084448800590037007b
:100f100000082000800f5500070034002402200044
:100f200084448800610464004d0032000000200009
:100f300001f82f004f003700e00f55001f003d0063
:100f40000a05ea0006003700922f20005301250011
:100f50000400be00ecfd07000002be006a0555005b
:100f6000e90f5500f8ff3c000600370002002000a2
:100f7000031224000400be00e3fd07000002be00cf
:100f80000a05e900e00f5500f8ff3a000403be002f
:100f900002002000030820000400be00f4b79f00f8
:100fa00087bf9f001afe07007fb397008fbb970093
:100fb000e00f500025003d001f003700e00f5500f6
:100fc00007003a0021003700922f2000530125002e
:100fd0000400be00a8fe07000002be006a0555001e
:100fe000e94f5500f8ff3e000600370002002000e0
:100ff000031224000400be009ffe07000002be0092
:101000000a05e900e00f5500f8ff3a000403be00ae
:10101000f2ff2f00f3f727000400be00f4b79f0093
:1010200087bf9f00fcfd07007fb397008fbb970031
:10103000e00f500005003400610464000b00320032
:1010400000002000010828000a0037006104640045
:101050000100320007f0a2000600be0005003700c4
:101060000000200001f827000200370000002000e7
:10107000010820004f0778004f06be004f05be0054
:101080004f04be00af00b1000000060008ff3700ab
:101090008000eb0006ff37008001780081037800b4
:1010a000070278000100370085017800110009006f
:1010b0000282d800000278008302e800e00f5200ac
:1010c000f9ff3a00844a7800110009008283d800b1
:1010d000800278000142780085037800e94f5200d1
:1010e000010034006742420001c3b3008151420055
:1010f000e08f5200f4ff3a00030078000000060081
:10110000881f780000047800e08f500005003d0043
:1011100008007800d4c2b300045878008100ea00c7
:101120000100370008007800dbff070008007800a6
:101130004f04780000000600000278008042eb00b7
:10114000b4cf1200fdff3a000080ea000000420028
:10115000000006000b00370030427800e04f5200dc
:10116000030032000201e900b14f520005003200d5
:101170000480fb00954278008582fb00050050004a
:101180000000060081027800e00f5100f2ff3a00f3
:101190000200780000000600020ab900001bb90036
:1011a0000200b800810042008100430000000600f8
:020000040000fa
:1011b00020200000005000004f5700004552000062
:1011c000204d00004f4e0000495400004f520000d7
:1011d000004300006f7500006e7400003a000000cc
:1011e0000a000000200000006c63000064000000a2
:1011f0007261000077000000737400006f700000df
:1012000000550000415200005420000055500000dd
:10121000444100005445000020530000544f00009a
:101220005000000073740000617200007400000040
:101230005541000052540000205500005044000069
:10124000415400004520000053540000415200006a
:101250005400000072730000746300006e7400009c
:101260000052000045530000455400002043000098
:101270004f5500004e54000045520000006700002a
:1012800065740000636e000074000000434f0000ae
:10129000554e000054450000522000005641000009
:1012a0004c550000452000003d2000000063000078
:1012b000616c00007273000074000000494e000071
:1012c000413200003139000020430000616c000011
:1012d0006962000072610000746900006f6e0000b6
:1012e000206d00006f640000650000005265000082
:1012f000737400006f72000065200000746f0000be
:101300002064000065660000617500006c740000d8
:1013100020760000616c0000756500003a20000036
:1013200038310000393200000072000065630000af
:10133000616c0000004900004e41000032310000a5
:101340003920000052450000636100006c69000014
:101350006272000061740000696f00006e2000007e
:101360006d6f0000646500000028000074790000c3
:10137000706500002065000078690000742000009e
:10138000746f000020630000616e00006365000060
:101390006c290000006500007869000074000000fe
:1013a000494e000041320000313900002052000057
:1013b00065630000616c00006962000072610000fa
:1013c000746900006f6e000000630000616e000031
:1013d000636500006c6c000065640000007900002b
:1013e000004900004e410000323100003920000069
:1013f000436100006c6900006272000061740000cb
:10140000696f00006e0000007570000064610000ec
:1014100074650000640000006e000000636100005d
:101420006c630000656c00006c65000064000000e7
:101430006765000074630000616c000000490000f3
:101440004e410000323100003920000043410000cd
:101450004c2000003d2000000055000050440000da
:101460004154000045200000535400004f5000003c
:1014700050450000440000000000000080e0000033
:1014800070380000188c0000cc46000026260000b2
:1014900026060000060600000606000006060000fc
:1014a000060600000606000006060000060600000c
:1014b00006060000060600000606000006060000fc
:1014c00006060000060600000606000006060000ec
:1014d00006060000060600000606000006060000dc
:1014e00006060000060600000606000006060000cc
:1014f00006060000060600000606000006060000bc
:1015000006060000060600000606000006060000ab
:10151000060600000606000006060000060600009b
:10152000060600000606000006060000060600008b
:10153000060600000606000006060000060600007b
:10154000060600000606000006060000060600006b
:10155000060600000606000006060000060600005b
:1015600006060000060c00000c1800003870000091
:10157000e08000000000000000fe0000ff0100000d
:10158000000000000e01000000000000000000004c
:10159000fefe000042420000427e00003c000000cf
:1015a000f8fc00000602000006fc0000f81e000027
:1015b000fe80000078780000c0fe00001e000000e1
:1015c000fefe000022220000222200000200000095
:1015d000fefe000042420000c2be00003c000000cf
:1015e00000000000000000000000000000000000fb
:1015f000fefe00003e6000003efe0000fe00000017
:10160000f8fc00000602000006fc0000f8000000e4
:10161000fefe00001e700000c0fe0000fe00000084
:1016200002020000fefe00000202000000000000b6
:1016300002020000fefe00000202000000000000a6
:10164000f8fc00000602000006fc0000f8000000a4
:10165000fefe000042420000c2be00003c0000004e
:10166000000000000000000000000000000000007a
:1016700001ff0000fe00000000ff0000ff0000006e
:10168000000000000000000000000000000000005a
:101690000303000000000000000000000000000044
:1016a0000001000003020000030100000000000030
:1016b000030300000000000003030000000000001e
:1016c000030300000202000002020000020000000a
:1016d00003030000000000000001000003020000fe
:1016e00000000000000000000000000000c000003a
:1016f000c3c30000c000000000030000030000009e
:1017000000010000030200000301000000000000cf
:1017100003030000000000000303000003000000ba
:1017200002020000030300000202000000000000ab
:1017300000000000030300000000000000000000a3
:10174000000100000302000003010000000000008f
:10175000030300000000000000010000030200007d
:101760000000000000000000000000000000000079
:1017700000ff0000ff00000000ff0000ff0000006d
:101780000000000000000000000000000000000059
:101790000000000000000000000000000000000049
:1017a0000000000000000000000000000000000039
:1017b0000000000000000000000000000000000029
:1017c0000000000000000000000000000000000019
:1017d000000000000000000080c00000f0f80000e1
:1017e000fc7c00003e1e00001e00000000ff000008
:1017f000ffff0000ff000000001e00001e3e000072
:101800007cfc0000f8f00000c08000000000000038
:1018100000000000000000000000000000000000c8
:1018200000000000000000000000000000000000b8
:1018300000000000000000000000000000000000a8
:101840000000000000000000000000000000000098
:101850000000000000000000000000000000000088
:101860000000000000000000000000000000000078
:1018700000ff0000ff00000000ff0000ff0000006c
:101880000000000000000000000000000000000058
:101890000000000000000000000000000000000048
:1018a0000000000000000000000000000000000038
:1018b0000000000000000000000000000000000028
:1018c0000000000000000000000000000000000018
:1018d0000000000000000000ffff0000ffff00000c
:1018e000000000000000000000000000001f0000d9
:1018f0001f1f00001f00000000000000000000008b
:1019000000000000ffff0000ffff000000000000db
:1019100000000000000000000000000000000000c7
:1019200000000000000000000000000000000000b7
:1019300000000000000000000000000000000000a7
:101940000000000000000000000000000000000097
:101950000000000000000000000000000000000087
:101960000000000000000000000000000000000077
:1019700000ff0000ff00000000ff0000ff0000006b
:101980000000000000000000000000000000000057
:101990000000000000000000000000000000000047
:1019a0000000000000000000000000000000000037
:1019b0000000000000000000000000000000000027
:1019c0000000000000000000000000000000000017
:1019d0000000000000000000010300000f1f0000d5
:1019e0003f3e00007c780000f8f00000f0f00000be
:1019f000f0f00000f0f00000f0f80000787c00004b
:101a00003e3f00001f0f0000070100000000000023
:101a100000000000000000000000000000000000c6
:101a200000000000000000000000000000000000b6
:101a300000000000000000000000000000000000a6
:101a40000000000000000000000000000000000096
:101a50000000000000000000000000000000000086
:101a60000000000000000000000000000000000076
:101a700000ff0000ff000000007f0000ff8000006a
:101a80000000000000000000000000000000000056
:101a900000000000000000000000000000600000e6
:101aa00080400000806000006080000040800000f6
:101ab00060600000804000008060000000000000c6
:101ac0000000000000000000fc20000020e00000fa
:101ad00000c00000a0a00000c000000020c0000066
:101ae000c020000000c00000a0a00000c000000056
:101af000c121000020e0000000e000000000000024
:101b0000e000000020e400000000000000200000d1
:101b1000f020000020000000a0a00000a0c00000f5
:101b200000000000e0200000200000000000000095
:101b30000000000000c00000202000002000000085
:101b4000c020000020c0000000e0000020e00000f5
:101b500020e0000000000000000000000000000085
:101b60000000000000000000807000000000000085
:101b700080ff00007f00000000000000010700005f
:101b80000e1c000018300000306000006060000093
:101b90006060000060600000606000006060000045
:101ba0006360000063600000606300006063000029
:101bb000606000006360000063600000606000001f
:101bc000626000006060000063600000606300000d
:101bd00060610000626200006260000062610000fb
:101be00061620000606100006262000062600000eb
:101bf000616a00006a6700006063000062620000c2
:101c000063620000626300006262000060600000c6
:101c100063620000626000006362000062630000b3
:101c200060600000636000006060000060620000af
:101c3000606000006061000062620000626000009d
:101c40006162000062610000606300006063000088
:101c5000606300006060000060600000606400007d
:101c60006464000062330000311800001c0e0000a4
:101c70000701000000000000504f00005745000021
:101c8000522000004d4f00004e490000544f00000c
:101c9000520000006865000078650000677500006c
:101ca00069740000617200002e6300006f6d000017
:101cb000007600002e200000312e000030000000d1
:101cc00056200000203d00000020000056000000cb
:101cd00049200000203d0000006d00004100000090
:101ce00050200000203d0000006d00005700000063
:101cf000496100006c3d0000002000002020000031
:101d0000204f000046460000202000002000000078
:101d10003b00000044410000544100002046000008
:101d20004f5200004d410000542000003d200000b3
:101d3000524100005700000044410000544100009f
:101d4000204600004f5200004d410000542000008a
:101d50003d2000004c43000044000000504f0000b4
:101d600057450000522000004a410000434b00004c
:101d70005300000052450000564500005253000039
:101d8000454400000043000048450000434b00006c
:101d90000054000048450000004300004f4e000082
:101da0004e45000043540000494f00004e530000d0
:101db0000052000045530000544f000052450000ff
:101dc00000430000414c0000494200005241000025
:101dd000544900004f4e000000530000617600009f
:101de000653f000020000000792f00006e00000019
:101df000494e00004132000031390000204300000c
:101e0000414c00003d0000004e45000057200000fe
:101e1000004f00004c44000020000000456e000010
:101e200074650000722000007468000065200000e6
:101e30006d6500006173000075720000656400004c
:101e400020760000616c000075650000205b0000da
:101e500078780000787800002e780000785d000027
:101e60006d4100003a00000045720000726f0000f2
:101e7000723a0000200000006f750000742000001e
:101e80006f66000020720000616e00006765000050
:101e90000049000072650000660000003f3f00003e
:101ea0003f3f00002e3f00003f0000000000000008
:101eb0000000000000000000000000000000000022
:101ec0000000000000000000000000000000000012
:101ed00000f800000000000000000000000000000a
:101ee000003300003000000000000000001000007f
:101ef0000c060000100c00000600000000000000ae
:101f000000000000000000000000000040c00000d1
:101f100078400000c078000040000000043f00004e
:101f2000040400003f0400000400000000700000f2
:101f300088fc0000083000000000000000180000cd
:101f400020ff0000211e000000000000f00800003b
:101f5000f0000000e0180000000000000021000078
:101f60001c0300001e2100001e00000000f0000005
:101f70000888000070000000000000001e21000022
:101f80002324000019270000211000001016000073
:101f90000e00000000000000000000000000000033
:101fa0000000000000000000000000000000000031
:101fb00000e0000018040000020000000000000023
:101fc0000007000018200000400000000002000090
:101fd00004180000e00000000000000000400000c5
:101fe0002018000007000000000000004040000032
:101ff00080f000008040000040000000020200006d
:10200000010f0000010200000200000000000000bb
:1020100000f00000000000000000000001010000ce
:10202000011f00000101000001000000000000008d
:1020300000000000000000000000000080b0000070
:102040007000000000000000000000000000000020
:10205000000000000000000000000000000100007f
:10206000010100000101000001010000000000006a
:102070000000000000000000000000000030000030
:102080003000000000000000000000000000000020
:1020900000000000806000001804000000600000e4
:1020a00018060000010000000000000000e0000031
:1020b0001008000008100000e0000000000f000001
:1020c00010200000201000000f0000000010000091
:1020d00010f80000000000000000000000200000d8
:1020e000203f0000202000000000000000700000e1
:1020f00008080000088800007000000000300000a0
:1021000028240000222100003000000000300000e0
:102110000888000088480000300000000018000017
:1021200020200000201100000e0000000000000030
:10213000c020000010f800000000000000070000b0
:1021400004240000243f00002400000000f80000e8
:10215000088800008808000008000000001900003e
:1021600021200000201100000e00000000e000000f
:10217000108800008818000000000000000f000018
:1021800011200000201100000e00000000380000a7
:1021900008080000c8380000080000000000000027
:1021a000003f000000000000000000000070000080
:1021b000880800000888000070000000001c000073
:1021c00022210000212200001c00000000e000008d
:1021d0001008000008100000e000000000000000ef
:1021e00031220000221100000f000000000000005a
:1021f00000c00000c000000000000000000000005f
:10220000003000003000000000000000000000006e
:10221000008000000000000000000000000000003e
:1022200080600000000000000000000000000000ce
:1022300080400000201000000800000000010000a5
:1022400002040000081000002000000040400000d0
:102250004040000040400000400000000404000036
:102260000404000004040000040000000008000052
:10227000102000004080000000000000002000004e
:1022800010080000040200000100000000700000bf
:102290004808000008080000f000000000000000ee
:1022a000003000003601000000000000c0300000d7
:1022b000c8280000e8100000e00000000718000037
:1022c00027240000231400000b0000000000000081
:1022d000c0380000e000000000000000203c0000ca
:1022e00023020000022700003820000008f8000048
:1022f000888800008870000000000000203f000077
:1023000020200000201100000e000000c03000005e
:102310000808000008080000380000000718000046
:1023200020200000201000000800000008f8000035
:102330000808000008100000e0000000203f000036
:1023400020200000201000000f00000008f800000e
:1023500088880000e808000010000000203f00000e
:1023600020200000232000001800000008f80000d2
:1023700088880000e808000010000000203f0000ee
:10238000200000000300000000000000c03000003a
:1023900008080000083800000000000007180000ce
:1023a00020200000221e00000200000008f80000ab
:1023b0000800000000080000f8080000203f0000ae
:1023c00021010000012100003f2000000008000062
:1023d00008f80000080800000000000000200000cd
:1023e000203f00002020000000000000000000004e
:1023f00008080000f808000008000000c080000085
:10240000808000007f0000000000000008f800004d
:1024100088c000002818000008000000203f0000cd
:1024200020010000263800002000000008f800000d
:10243000080000000000000000000000203f000035
:1024400020200000202000003000000008f80000dc
:10245000f8000000f8f8000008000000203f00002d
:10246000003f0000003f00002000000008f80000ce
:1024700030c0000000080000f8080000203f000005
:1024800020000000071800003f000000e0100000de
:102490000808000008100000e00000000f10000015
:1024a00020200000201000000f00000008f80000ad
:1024b0000808000008080000f0000000203f0000ad
:1024c000210100000101000000000000e0100000f8
:1024d0000808000008100000e00000000f180000cd
:1024e00024240000385000004f00000008f80000cd
:1024f000888800008888000070000000203f0000ed
:1025000020000000030c00003020000000700000dc
:1025100088080000080800003800000000380000ab
:1025200020210000212200001c00000018080000eb
:1025300008f8000008080000180000000000000073
:10254000203f0000200000000000000008f800000c
:102550000800000000080000f8080000001f00004c
:1025600020200000202000001f000000087800004c
:102570008800000000c800003808000000000000cb
:10258000073800000e01000000000000f8080000fd
:1025900000f8000000080000f8000000033c000004
:1025a00007000000073c00000300000008180000be
:1025b00068800000806800001808000020300000db
:1025c0002c030000032c000030200000083800001d
:1025d000c8000000c838000008000000000000002b
:1025e000203f000020000000000000001008000054
:1025f00008080000c838000008000000203800006b
:10260000262100002020000018000000000000002b
:1026100000fe0000020200000200000000000000b6
:10262000007f00004040000040000000000c00005f
:1026300030c00000000000000000000000000000aa
:102640000001000006380000c00000000002000089
:1026500002020000fe000000000000000040000038
:10266000404000007f00000000000000000000006b
:10267000040200000202000004000000000000004c
:10268000000000000000000000000000000000004a
:10269000000000000000000000000000808000003a
:1026a0008080000080800000808000000002000028
:1026b0000204000000000000000000000000000014
:1026c000000000000000000000000000000000000a
:1026d00080800000808000000000000000190000e1
:1026e00024220000222200003f20000008f8000001
:1026f000008000008000000000000000003f00009b
:1027000011200000201100000e0000000000000059
:10271000008000008080000000000000000e00002b
:102720001120000020200000110000000000000027
:102730000080000080880000f8000000000e00000b
:1027400011200000201000003f20000000000000c9
:10275000808000008080000000000000001f00005a
:10276000222200002222000013000000008000004e
:1027700080f0000088880000881800000020000019
:10278000203f0000202000000000000000000000aa
:10279000808000008080000080000000006b00004e
:1027a00094940000949300006000000008f800007a
:1027b000008000008080000000000000203f00003a
:1027c00021000000002000003f20000000800000e9
:1027d00098980000000000000000000000200000a9
:1027e000203f00002020000000000000000000004a
:1027f00000800000989800000000000000c0000069
:1028000080800000807f00000000000008f80000c9
:10281000000000008080000080000000203f0000d9
:10282000240200002d3000002000000000080000fd
:1028300008f8000000000000000000000020000078
:10284000203f0000202000000000000080800000e9
:10285000808000008080000080000000203f000099
:10286000200000003f200000003f000080800000aa
:10287000008000008080000000000000203f000079
:1028800021000000002000003f20000000000000a8
:10289000808000008080000000000000001f000019
:1028a00020200000202000001f0000008080000089
:1028b00000800000800000000000000080ff000099
:1028c000a1200000201100000e0000000000000008
:1028d000008000008080000080000000000e0000ea
:1028e0001120000020a00000ff8000008080000078
:1028f0008000000080800000800000002020000098
:102900003f21000020000000010000000000000046
:102910008080000080800000800000000033000004
:10292000242400002424000019000000008000007e
:1029300080e0000080800000000000000000000037
:10294000001f000020200000000000008080000028
:10295000000000000080000080000000001f000058
:1029600020200000201000003f2000008080000098
:102970008000000000800000808000000001000056
:102980000e300000080600000100000080800000fa
:102990000080000000800000808000000f300000f8
:1029a0000c0300000c3000000f000000008000004d
:1029b00080000000808000008000000000200000f7
:1029c000312e00000e310000200000008080000049
:1029d00080000000008000008080000080810000f6
:1029e0008e7000001806000001000000008000004a
:1029f0008080000080800000800000000021000036
:102a0000302c0000222100003000000000000000f7
:102a100000000000807c00000202000000000000b6
:102a200000000000003f00004040000000000000e7
:102a300000000000ff000000000000000000000097
:102a400000000000ff000000000000000002000085
:102a5000027c000080000000000000000040000038
:102a6000403f0000000000000000000000060000e1
:102a70000101000002020000040400000000000048
:102a80000000000000000000000000000000000046
:102a9000000000000000000000000000002f000007
:102aa0000000000000000000070000000700000018
:102ab000001400007f1400007f14000000240000b8
:102ac0002a7f00002a120000006200006408000053
:102ad000132300000036000049550000225000007a
:102ae00000000000050300000000000000000000de
:102af0001c220000410000000000000041220000f4
:102b00001c00000000140000083e00000814000033
:102b100000080000083e0000080800000000000057
:102b200000a000006000000000080000080800008d
:102b300008080000000000006060000000000000c5
:102b4000002000001008000004020000003e000009
:102b500051490000453e000000000000427f000097
:102b600040000000004200006151000049460000a2
:102b700000210000414500004b310000001800001a
:102b8000141200007f1000000027000045450000df
:102b900045390000003c00004a490000493000006f
:102ba000000100007109000005030000003600006c
:102bb000494900004936000000060000494900006c
:102bc000291e000000000000363600000000000052
:102bd0000000000056360000000000000008000061
:102be0001422000041000000001400001414000032
:102bf000141400000000000041220000140800002e
:102c0000000200000151000009060000003200002f
:102c100049590000513e0000007c000012110000e4
:102c2000127c0000007f0000494900004936000086
:102c3000003e00004141000041220000007f0000f2
:102c400041410000221c0000007f000049490000b3
:102c500049410000007f000009090000090100004f
:102c6000003e000041490000497a0000007f00005a
:102c700008080000087f000000000000417f0000fd
:102c80004100000000200000404100003f01000022
:102c9000007f00000814000022410000007f0000b7
:102ca0004040000040400000007f0000020c000097
:102cb000027f0000007f000004080000107f000079
:102cc000003e000041410000413e0000007f000046
:102cd0000909000009060000003e00004151000003
:102ce000215e0000007f0000091900002946000055
:102cf0000046000049490000493100000001000081
:102d0000017f000001010000003f00004040000082
:102d1000403f0000001f000020400000201f000076
:102d2000003f000040380000403f0000006300000a
:102d30001408000014630000000700000870000081
:102d400008070000006100005149000045430000f1
:102d5000000000007f41000041000000005500001d
:102d60002a5500002a5500000000000041410000e3
:102d70007f000000000400000201000002040000c7
:102d80000040000040400000404000000000000003
:102d90000102000004000000002000005454000064
:102da00054780000007f00004844000044380000d0
:102db00000380000444400004420000000380000b7
:102dc00044440000487f00000038000054540000d4
:102dd00054180000000800007e09000001020000f5
:102de00000180000a4a40000a47c0000007f0000e4
:102df000080400000478000000000000447d00008a
:102e00004000000000400000808400007d000000c1
:102e1000007f0000102800004400000000000000b7
:102e2000417f000040000000007c0000041800000a
:102e300004780000007c0000080400000478000012
:102e400000380000444400004438000000fc00004a
:102e5000242400002418000000180000242400008e
:102e600018fc0000007c00000804000004080000ba
:102e700000480000545400005420000000040000ea
:102e80003f44000040200000003c000040400000a3
:102e9000207c0000001c000020400000201c0000de
:102ea000003c000040300000403c000000440000b6
:102eb0002810000028440000001c0000a0a0000012
:102ec000a07c000000440000645400004c4400005a
:0c2ed000000000000609000009060000d8
:020000040000fa
:102edc000002b800462bdd004a22de00040273001b
:102eec00ca2ade00658040000022b800462bdd00b7
:102efc004a22de0004027300ca2ade000400e80045
:102f0c00810f5000010036000000eb0000000600ad
:102f1c00d0418800d4418000e00f5200fdff3a0000
:102f2c00000006000a00fa00889fbe00000478002a
:102f3c005768ec0032812000004080001140800076
:102f4c007f0707008042800091428000a280200011
:102f5c007b07070020408000314080002df60700e1
:102f6c000002be00c281200041c0b3000400780002
:102f7c00de0707005282200041c0b30040408000b1
:102f8c00da07070009002000e40f5400e08f5c0012
:102f9c0065013e0008600100040037009c0037000a
:102fac00b90037009a003700010137008041eb006f
:102fbc0002e62800834078000340780014060700de
:102fcc008041eb0052e628008340780040c6b300f5
:102fdc000f0607008041eb0032812000834078000f
:102fec0000c2b3000a0607008041eb0082e628000d
:102ffc0021c0b3000340780005060700434280005f
:10300c00e181610003003200738520009341780058
:10301c00e1816100a280200021c0b30000c2b30096
:10302c00fb0507008041eb00d2e6280021c0b3006d
:10303c0040c6b300f60507008041eb0002e728000c
:10304c0041c0b30003407800f10507008041eb005c
:10305c00c281200041c0b30000c2b300ec050700e0
:10306c008041eb0052e7280041c0b30040c6b300da
:10307c00e70507008041eb0082e7280061c0b30040
:10308c0003407800e20507004842800062046400b7
:10309c00080032008041eb00d2e7280061c0b30089
:1030ac0000c2b300da0507008041eb00828d2800d6
:1030bc0007003700884178005282200061c0b300bd
:1030cc0000c2b300d205070088417800d2e6280080
:1030dc0061c0b30040c6b300cd0507008041eb00d2
:1030ec00b28d28008340780030c0b300a2060700e0
:1030fc008041eb0002e6280021c0b30003407800b9
:10310c009d0607008041eb0052e6280021c0b30069
:10311c0080c4b300980607008041eb003281200088
:10312c0021c0b30080c1b300930607008041eb00bf
:10313c0082e6280031c0b300034078008e060700f9
:10314c0043428000e181610003003200738520005e
:10315c0093417800e1816100a280200031c0b3006e
:10316c0080c1b300840607008041eb00d2e6280042
:10317c0031c0b30080c4b3007f0607008041eb0070
:10318c0002e7280041c0b300034078007a0607002c
:10319c008041eb00c281200041c0b30080c1b3006c
:1031ac00750607008041eb0052e7280041c0b300d0
:1031bc0080c4b300700607008041eb0082e7280052
:1031cc0051c0b300034078006b06070048428000f2
:1031dc0062046400050032008041eb00d2e7280055
:1031ec0051c0b30080c1b300ce00370088417800d5
:1031fc005282200051c0b30080c1b3005e060700ac
:10320c0088417800d2e6280051c0b3006600370030
:10321c008041eb0012ee28008340780000c1b3001f
:10322c007b0507008041eb0092ed280021c0b30024
:10323c0000c2b300760507008041eb00d2ee2800f7
:10324c0061c0b30003407800710507008041eb00ba
:10325c0042ef280061c0b30000c3b3006c05070047
:10326c008041eb0012ee28008340780080c0b30050
:10327c00410607008041eb0092ed280021c0b3000d
:10328c0020c1b3009d0037008041eb0012ee2800f6
:10329c008340780000c1b3005d0507008041eb005e
:1032ac0082e6280021c0b3000340780058050700cf
:1032bc008041eb00a280200021c0b30000c2b3000b
:1032cc00530507008041eb00d2e6280021c0b30073
:1032dc0040c6b3004e0507008041eb0092f4280075
:1032ec0041c0b300034078004905070073852000f6
:1032fc0093417800e1c16100e2f4280041c0b300c1
:10330c0000c2b300420507008041eb00d2e6280062
:10331c0041c0b30040c6b3003d0507008041eb003f
:10332c0012ee280083407800c0c0b30012060700dc
:10333c008041eb0082e6280021c0b30003407800f6
:10334c000d0607008041eb00a280200021c0b300d5
:10335c0080c1b300080607008041eb00d2e62800cc
:10336c0021c0b30080c4b300030607008041eb000a
:10337c0092f4280031c0b30003407800fe0507002a
:10338c007385200093417800e1c16100e2f42800cc
:10339c0031c0b30080c1b300f70507008041eb00da
:1033ac00d2e6280031c0b30080c4b3005d00370002
:1033bc006e815700604480007144800060060700f5
:1033cc008041eb0012ee28008340780000c1b3006e
:1033dc000f0507008041eb0082e6280021c0b300f6
:1033ec00034078000a0507008041eb00a280200012
:1033fc0021c0b30000c2b300050507008041eb00fb
:10340c00d2e6280021c0b30040c6b3000005070077
:10341c008041eb0092f4280041c0b30003407800d7
:10342c00fb0407008041eb006e81570041c0b300e4
:10343c0000c2b300f60407008041eb00d2e628007e
:10344c0041c0b30040c6b300f10407008041eb005b
:10345c00d2ee280061c0b30003407800ec040700f2
:10346c008041eb0042ef280061c0b30000c3b30001
:10347c00e70407008041eb0012ee2800834078003f
:10348c00c0c0b300bc0507008041eb0082e62800f9
:10349c0021c0b30003407800b70507008041eb0062
:1034ac00a280200021c0b30080c1b300b205070088
:1034bc008041eb00d2e6280021c0b30080c4b300e9
:1034cc00ad0507008041eb0092f4280031c0b30039
:1034dc0003407800a80507008041eb006e8157007f
:1034ec0031c0b30080c1b300a30507008041eb00dd
:1034fc00d2e6280031c0b30080c4b3009e0507009b
:10350c008041eb00d2ee280051c0b300034078009c
:10351c00990507008041eb0042ef280051c0b30031
:10352c00e0c1b300940507004f04be000080fa0010
:10353c00000006005668ec008041eb00e2ea28002f
:10354c008340780040c1b300b104070063852000bc
:10355c0093417800e1c16100a2eb280021c0b300c7
:10356c0000c2b300aa0407008041eb0032ec280033
:10357c0041c0b300c0c2b300a50407008041eb00fa
:10358c0092ec280061c0b30003407800a00407004f
:10359c008041eb00d2ec280061c0b30000c2b30044
:1035ac009b0407008041eb00e2ea2800834078008e
:1035bc0080c0b3007005070063852000934178003c
:1035cc00e1c16100a2eb280021c0b300f0c0b30040
:1035dc00690507008041eb0032ec280041c0b300c4
:1035ec00d0c0b300640507008041eb0092ec2800ca
:1035fc0041c0b30010c3b3005f0507008041eb006e
:10360c00d2ec280051c0b30080c0b3005a0537007b
:10361c000000eb00c5070700004288004008ab0023
:10362c0003003200a0e82800640707002000050012
:10363c00c0e9280061070700100005000a00fa0025
:10364c00881f780000047800f1418000a20020005f
:10365c006c805700a7f607003e28ec00e10f5400e1
:10366c0003003200e20f540037003a00220037000a
:10367c00908e2800480707006c8057004f07070002
:10368c0000e62800440707003081200042070700ad
:10369c0050e628004907070080e628003e0707008f
:1036ac00a08020003c070700d0e628004307070055
:1036bc0000e7280038070700c08120003607070004
:1036cc0050e728003d07070080e728003207070075
:1036dc004442800062026200d0e7280003003a00f6
:1036ec00508220002c070700d0e628002a0707008c
:1036fc00008f2800130037006c8057002607070046
:10370c00308120002407070080e8280022070700ea
:10371c00a08020002007070080e828001e07070073
:10372c00c08120001c07070080e828001a0707004a
:10373c004442800062026200d0e7280001003a0097
:10374c0050822000140707004f0478000080fa0014
:10375c0000000600e0ea28000f070700208f280071
:10376c000d070700a0eb28001407070030ec280019
:10377c0009070700208f28000707070090ec280096
:10378c0005070700208f280003070700d0ec28004e
:10379c000a073700d482200069034200a5c2b30097
:1037ac00056a7800860f5200fdff3a005468ef005e
:1037bc00000006000200fa00889fbe00d4bf9f00e4
:1037cc00cef307000004be005fba97006120b8007a
:1037dc004ff407000001be000800be00a3f4070070
:1037ec002df407004f04be000080fa000000060014
:1037fc00889fbe008003780004102000848f530043
:10380c0035013200483ade000440780049e8b70040
:10381c0044852000144278008482fb00e68220005c
:10382c0007f37a000442e8000440780054e8b7003b
:10383c00eacf530002003a0010c0b30055e8b700bd
:10384c004485200014427800e84f520001003600f5
:10385c005468ef005885200018447800e04f54005d
:10386c0018013200444280004322de0067026200ed
:10387c00cfa2de00e40f5200e08f5a00ff003e00a2
:10388c000460010004003700fc0037007c003700a6
:10389c00d3003700d400370032002000418f2800bd
:1038ac00e082200028f607000044eb00e00f5000f7
:1038bc0009003a0014428000e10f5200030032006c
:1038cc00180020001842880000428800c0e9280037
:1038dc00b1060700afff070032002000818f2800df
:1038ec00e082200018f60700e00f50000a003a00b2
:1038fc0014428000e20f5200040032002400200029
:10390c00144288001800200008428800a0e8280013
:10391c00a10607009fff070042002000c18f28006e
:10392c00e082200008f60700e00f500004003a0087
:10393c004408a900109028009706070095ff07007f
:10394c005200200021912800e0822000fef50700a3
:10395c00e00f500004003a004408a80080912800b1
:10396c008d0607008bff070052002000a192280053
:10397c00e0822000f4f50700e00f500004003a004c
:10398c00f0418800109328008306070081ff070090
:10399c0062002000f1932800e0822000eaf5070085
:1039ac00e00f500009003a00f1418000a200200015
:1039bc00e0822000cff5070060942800760607000f
:1039cc00e08220007406070072ff070062002000ee
:1039dc0071952800e0822000dbf50700e00f500015
:1039ec0014003a00700307009b0407004442800057
:1039fc000430a0000440a1000450a10044428800ff
:103a0c00e09528006d060700609728006b060700fc
:103a1c00d0ee28006006070040ef2800670607007c
:103a2c00444280008401b3000450a1004442880049
:103a3c0058ff07005200200051992800e082200016
:103a4c00c1f50700e00f50008d003a005603070047
:103a5c0081040700444280000430a1000440a0000f
:103a6c000450a10044428800b09928005306070076
:103a7c00509b280051060700e0f028000f0037008b
:103a8c0042002000b19c2800e0822000aef5070027
:103a9c0000047800e00f54000a003a000840780057
:103aac00410307006c04070070fc2f004828b60087
:103abc00009d280041060700509e28003f06070085
:103acc006c003700e08220006ef507000004be0099
:103adc0060448800714488006011b8008ef30700c0
:103aec00e00f50003500320002002000a3472400f4
:103afc000800be0043f30700e00f50002f003c000d
:103b0c00e28220000800be008d04070090f428001b
:103b1c0021060700e08220001f060700d0e62800df
:103b2c0026060700184480008242800093428000e1
:103b3c000802780060448000714480001dff07007b
:103b4c00c0418800a200200088007800e08220009c
:103b5c0068f5070090f028000f06070080ef28009a
:103b6c000d060700e082200014060700a2002000ca
:103b7c00c1418000e08220005ef5070040f0280083
:103b8c000506070080ef280003060700e0822000ee
:103b9c000a060700d0ee2800ff05070040ef2800ba
:103bac000606070074fe2f004542800005026200e5
:103bbc000450a000444288000600370040f328005f
:103bcc00f505070090f42800f3050700c0f3280062
:103bdc00fa050700effe07005568ef0027003700d5
:103bec0004002200c4418800e58220009542780040
:103bfc00f49e280094cf52000f003a00c14180007f
:103c0c00100020006c060700c0418000b7050700bb
:103c1c00109f2800e905070040a02800e7050700d1
:103c2c000040eb00e00207000b04070070fc2f00c3
:103c3c004828b600d7fe07000044eb00e5822000c0
:103c4c0095427800c4a0280094cf52000c003a0092
:103c5c0008407800d4020700ff030700109f2800db
:103c6c00d6050700e0a02800d405070070fc2f0043
:103c7c004828b600c7fe0700010037000044eb00df
:103c8c006200200081a12800e08220002ef50700b0
:103c9c00e00f500009003a00a200200011448000ff
:103cac00e082200013f50700f0a12800ba050700f8
:103cbc00e0822000b8050700b6fe0700b5fe07003d
:103ccc005568ef006104640003003200014280007b
:103cdc000000eb00380607000040eb004f04be006c
:103cec0000000600889fbe000044eb0008407800ee
:103cfc0049e8b70070fc2f004828b6008004eb00a0
:103d0c00f9418800d4072000e4418800a904070089
:103d1c002903070060c4b300de03070074c0b300be
:103d2c00f3c0b30032c0b3008240780010c0b300bf
:103d3c007805070010002000fc0507006b05070044
:103d4c000940780098020700c3030700090c88009b
:103d5c00c4a3280083c0b30002c8b3008940780014
:103d6c0009407800f402070089417800c2e328007a
:103d7c008840780030c0b3007f030700884178008a
:103d8c0092e5280021c0b30060c1b3007a0307009c
:103d9c0088417800a2e4280051c0b30008407800a4
:103dac0075030700c0e328008405070090e5280090
:103dbc0082050700a0e428008005070014fe070018
:103dcc0010428800d0a22800730507000060fe0096
:103ddc00600920004efc07000840780072020700c2
:103dec009d0307004f04be0000000600881f7800ea
:103dfc008a9fbe00bbff0700d80720000060fe00b2
:103e0c008000200042fc0700320507008042880039
:103e1c009142880005050700004088001140880089
:103e2c002105070020408800314088005042800066
:103e3c00813e200026fc07000002780044408800e8
:103e4c00e00f5200020032004828a90001003700a0
:103e5c004828a8008a4280009b4280006120b8005c
:103e6c00abf207000001be000a00be0067f20700bb
:103e7c00e00f5000040034004828ab0002003a0068
:103e8c004808a800010037004808a90080428000bb
:103e9c00914280000200200003002c0059f2070020
:103eac00e00f500004003d00a2fd07004848a800a8
:103ebc004408a80005003700404280004300de00a3
:103ecc006700600017fc07004848a9004408ab00d5
:103edc000a003200e4418000e00f520007003a0073
:103eec004848ab00020032001afe070002003700ff
:103efc0010428000d1fd0700e84188003a05070018
:103f0c003bfe0700bdff3700801f7800849fbe007a
:103f1c00869fbe0085a0a900664280007742800083
:103f2c0064428000754280004828dd004822de0093
:103f3c0004027000c82ade000402530085825b0074
:103f4c00644288007542880064428000754280009b
:103f5c00061880000603e80006024200e0824a00d0
:103f6c00644288007542880064428000754280007b
:103f7c00482bdd004822de0004027300c82ade0054
:103f8c00544288004f03be004f02be004f00780021
:103f9c0000400600849fbe008500a900d44180002b
:103fac00e00f5200010032000402e900d441880005
:103fbc00e4418000e00f5200010032000402e900ed
:103fcc00e4418800344280000402e8008402780056
:103fdc000504b200070032004808ab0002003a00aa
:103fec004848ab000300320005082000050c88008f
:103ffc00010037008021ef00344288004f02be00e0
:10400c0000400600740220002410880004202100c7
:10401c00341088000000eb0000108800101088009d
:10402c00040a2000541088000942a90007e2a800e5
:10403c000420290034108800000006000602a800a5
:10404c000602ab00feff3a00401080004300de0089
:10405c0061006000000006000622a8000622ab00ea
:10406c00feff3a00401080004300de00610060005b
:10407c00000006000642a8000642ab00feff3a0014
:10408c00401080004400de0061006000000006006b
:10409c000080fb0010108800401080006100600060
:1040ac00fdff3a0000000600040024000602ab00ed
:1040bc00feff3a000642ab00fcff3a000662ab0082
:1040cc00faff3a000682ab00f8ff3a004510800078
:1040dc0005006200e00f5000f4ff3a0000000600fb
:1040ec00401080000080ea004f00de000000060057
:1040fc0006a2a8000682a8003010800070006000a4
:10410c00fdff3a0006a2a9000000060006a2a900c5
:10411c000682a8003010800070006000fdff3a009d
:10412c00000006000662a800000000000822ab0098
:10413c00feff32000010800000000600889fbe00c9
:10414c008a1f780001447800800478000a4020001f
:10415c0009003700f3ff0700805c780045108000f1
:10416c0005026500e00f520007003a000844e90020
:10417c0001003200e5ff0700e04f5400f5ff3a0064
:10418c000000eb0001003700100020004f05780004
:10419c004f04be00000006000200fa00889fbe001b
:1041ac008a9fbe0000447800814478000245780064
:1041bc0084457800b3bf9f00bbff07009fff07003b
:1041cc0008407800b2ff0700b7ff070009407800ed
:1041dc00afff0700b4ff07000a407800acff0700f0
:1041ec00b1ff07009cff0700084078000004a00006
:1041fc00a7ff0700acff07008b4078003fb8970083
:10420c00ceff0700baff07009aff07000000eb0083
:10421c004f05be004f04be000080fa0000000600ef
:10422c00889fbe008a9fbe0000447800014578003c
:10423c0082047800834578009bff07007fff07000e
:10424c000840780092ff070097ff07000a407800ab
:10425c008fff070094ff07007fff070008407800de
:10426c000004a0008aff07008fff07008b40780036
:10427c0009007800b1ff07009dff07007dff0700d4
:10428c000000eb004f05be004f04be00000006000e
:10429c000200fa00889fbe008a9fbe00004478008e
:1042ac00814478000245780084457800b3bf9f00b4
:1042bc007dff070061ff07000840780074ff0700ce
:1042cc0079ff07000940780071ff070076ff0700af
:1042dc000a4078006eff070073ff07005eff0700bf
:1042ec00084078000004a00069ff07006eff07007b
:1042fc008b4078003fb8970090ff07007cff0700c9
:10430c005cff07000000eb004f05be004f04be0031
:10431c000080fa0000000600889fbe008a9fbe0045
:10432c0000447800014578008204780083457800c9
:10433c005dff070041ff07000840780054ff0700ad
:10434c0059ff07000a40780051ff070056ff07008d
:10435c0041ff0700084078000004a0004cff070054
:10436c0051ff07008b4078000900780073ff0700ad
:10437c005fff07003fff07000000eb004f05be008a
:10438c004f04be0000000600889fbe0080447800e9
:10439c0045ff070029ff070008402000451080005a
:1043ac000502640010002000e00f520024003a00c7
:1043bc000940780036ff070000027800300020002a
:1043cc00e00f52001e003a0037ff07004510800036
:1043dc000502640010002000e00f52000b003200b8
:1043ec00170037001cff0700451080000502640011
:1043fc00e00f52000f003a000940780024ff07003c
:10440c00e00f50000d003a0027ff070034ff0700b3
:10441c00e00f5000f3ff3a0016ff070000402000a9
:10442c000802b600e00f5000050032000080eb00df
:10443c00030037001000200001003700300020007e
:10444c004f04be0000000600889fbe008a9fbe007d
:10445c000044780081447800024578008345780058
:10446c0011ff0700f5fe07000840780008ff070061
:10447c000dff07001aff07000940780004ff070032
:10448c0009ff07000a40780001ff070006ff07003c
:10449c0013ff0700800478000b407800fcfe070037
:1044ac0001ff0700f3fe070008407800b6ff070085
:1044bc00090078004f05be004f04be000000060046
:1044cc00889fbe008a1f78000044780081447800e1
:1044dc0002457800f4fe0700d8fe0700084078007b
:1044ec00ebfe0700f0fe0700fdfe07000940780018
:1044fc00e7fe0700ecfe0700f9fe070080047800d9
:10450c000a407800e2fe0700e7fe0700d9fe07002c
:10451c00084078009cff0700090078004f057800e0
:10452c004f04be0000000600889fbe008a1f780062
:10453c000004780064054400090028003840780025
:10454c00d3fe0700e00f500008003a00d6fe07002b
:10455c004410800004806400e00f500005003a0015
:10456c008a0f5400f5ff3a0003003700300020009a
:10457c0001003700200020004f0578004f04be00da
:10458c00000006000200fa00889fbe008a1f780017
:10459c00004478008144780002457800c3bf9f0036
:1045ac00c1fe0700a5fe070008407800b8fe070012
:1045bc00bdfe070009407800b5fe0700bafe0700f3
:1045cc000a407800b2fe0700b7fe07004fb897000c
:1045dc00d5ff0700b4fe0700a6fe07000000eb00a5
:1045ec004f0578004f04be000080fa000000060062
:1045fc00889fbe008a1f78000044780081447800b0
:10460c0002057800a8fe07008cfe07000840780021
:10461c009ffe0700a4fe0700094078009cfe0700df
:10462c00a1fe07000a007800bfff07009efe0700ee
:10463c0090fe07000000eb004f0578004f04be0011
:10464c0000000600c482a80000000600c482a90075
:10465c0000000600cc82a80000000600cc82a90055
:10466c000000060000000000000000000000000038
:10467c000000000000000600f2ff0700f5ff070035
:10468c00f8ff0700f5ff0700f6ff0700efff070034
:10469c00f4ff3700f1ff0700f2ff0700e9ff070006
:1046ac00f0ff0700ebff0700eeff3700889fbe000e
:1046bc000004eb008084fb00084add000408b20013
:1046cc0002003200e3ff070001003700e3ff0700a0
:1046dc00e4ff0700dbff0700e2ff0700dbff07003a
:1046ec00e0ff07000804e800e80f5400f2ff3a006e
:1046fc00d8ff0700dbff0700d2ff0700d9ff070038
:10470c00d2ff0700d7ff07004f04be0000000600d1
:10471c00881f780000447800d7ff070080c7b300db
:10472c00e2ff07000040eb00e0ff070008407800c4
:10473c00deff0700d7ff07004f04780000000600db
:10474c00cdff070080c7b300d8ff070000c4b3003b
:10475c00d6ff3700889fbe00004478008144780063
:10476c00c5ff070080c7b300d0ff07000040eb0077
:10477c00ceff070000cbb30000c04400cbff070006
:10478c000880fb004400de000044a000c7ff0700c7
:10479c006e4064000004a000c4ff0700bdff0700ca
:1047ac004f04be0000000600889fbe008a9fbe001a
:1047bc008045780008cbb3000ac8b30008407800e5
:1047cc00d3ff07000040eb00d1ff070000c1b3008e
:1047dc00cfff0700daff07008044eb000b407800a6
:1047ec00b2ff07008944e8008acf5400fbff3a006f
:1047fc00a8ff07000844e80084cbb300844f5400a2
:10480c00eeff3a004f05be004f04be00000006004c
:10481c00e6874700889fbe008a9fbe008c9fbe0023
:10482c008e1f7800004478008144780002057800df
:10483c00034778000046eb006df528003400370084
:10484c0004ceb30084c5450084c7b300844f540024
:10485c00020036008944e8000044eb0089407800ef
:10486c0008407800bbff0700b5ff07008b85fb00f5
:10487c00c45ddd00fbb79f008005eb00ffb2970025
:10488c0005824600e04f57000300320064c07d00f3
:10489c0000c0ea000100370064c07d0084bf9f00a7
:1048ac0082ff07008b05e8000fba9700e88f5500d0
:1048bc00f4ff3a0077ff07008940e80008407800d1
:1048cc00a4ff07009eff0700ffb29700688242001a
:1048dc000d024200e04f57000200320014c0ea0003
:1048ec00010037001440780084bf9f006fff070061
:1048fc008b45e9000fba97000402e800e0cf5500a1
:10490c00f4ff3a0063ff0700684444000c46e800db
:10491c000c82fb00ea457a00e0cf5500c8ff3a0054
:10492c004f0778004f06be004f05be004f04be0077
:10493c006f00b10000000600889fbe008a9fbe0079
:10494c008c9fbe008e1f7800004478008244780053
:10495c000345780084067800814578000006eb005a
:10496c000e0037008b4078000840780079ff070074
:10497c0073ff070008477800040037006d407e0085
:10498c000c06e80049ff07000e47e800894f570066
:10499c00faff39003fff07008b45e8008acf55002e
:1049ac00f0ff39004f0778004f06be004f05be00e0
:1049bc004f04be0000000600c082a900c882a900f6
:1049cc00e0cab30052ff07000040eb0050ff0700a5
:1049dc0000c1b3004eff070000c4b3004cff07003a
:1049ec0010c8b3004aff0700f0ccb30048ff070023
:1049fc0010cab30046ff070080ccb30044ff070089
:104a0c0060cab30042ff070080cab30040ff070032
:104a1c00f0c3b3003eff070030cdb3003cff0700ee
:104a2c000040eb003aff070050cdb30038ff070001
:104a3c0000c8b30036ff070090cdb30034ff070069
:104a4c0010cfb30032ff0700a0cdb30030ff07003a
:104a5c0020c1b3002eff0700b0cdb3002cff070020
:104a6c0000c4b3002aff070000c2b30028ff0700f0
:104a7c0020c0b30026ff0700d0c8b30024ff0700f6
:104a8c0040c1b30022ff070040cab30020ff07005b
:104a9c0060cab3001eff0700f0cab3001cff37004a
:104aac0002003700000000000040e900e04f500019
:104abc00fcff3a0000000600cde2a900e0cf500058
:104acc0002003a00c442a90001003700c442a80009
:104adc000080fb00401288004022ab00feff3a0031
:104aec004002ab00feff320044128000cde2a80071
:104afc0000000600889fbe008a1f780001447800e1
:104b0c0002ceb3000240400062c0b3000440bc00bf
:104b1c00545429000405410069c0b3005a40780080
:104b2c00e04f54000100320000c0ea0011c0b30095
:104b3c00e1ff07008944e900f8ff3a004f057800cf
:104b4c004f04be0000000600881f78000044780067
:104b5c00014078000064a0008040eb00d6ff070005
:104b6c00084078000074a0008040eb00d2ff0700e2
:104b7c004f04780000000600889fbe0002047800f5
:104b8c0083447800f0ff070002003700894078006a
:104b9c00d8ff070038407800e04f5000fbff3a0088
:104bac004f04be0000000600e4874700889fbe004b
:104bbc008a9fbe008c9fbe008e1f78000044780038
:104bcc0081447800e74262000482fb00e0cf52008f
:104bdc0002003a004322de00020037004322de00ce
:104bec000442e8008386fb00820578000005eb0098
:104bfc000482fb0084bf9f000d0037000840780042
:104c0c00d1ff07000b0778000006eb00040037000b
:104c1c003e40780011c0b300a7ff07000c06e80067
:104c2c008d0f5600faff39000a05e8008d85450006
:104c3c008ac044000fba9700840f5500efff39006b
:104c4c004f0778004f06be004f05be004f04be0054
:104c5c004f00b10000000600881f78008040eb0078
:104c6c0000c4b30094ff07008040eb0000c8b30001
:104c7c0091ff0700881f200011c0b3000040eb001b
:104c8c008dff07000804e900fbff3a004f04780091
:104c9c0000000600881f780000447800c9e2a900d3
:104cac00c062a900c042a900c9a2a900c982a9007a
:104cbc00c9c2a800e04f540001003d00f8c7b30082
:104ccc00c462a900c462a8008040eb0010c2b3000b
:104cdc0079ff0700084078000074a0008040eb00ca
:104cec0075ff07008040eb0060c0b30072ff070047
:104cfc008040eb0030c1b3006fff07008040eb0039
:104d0c0000c2b3006cff0700d3ff07008040eb002c
:104d1c00c0c0b30068ff07004f0478000000060015
:104d2c00e04f5000030032008040eb00d0c0b300d5
:104d3c000200370080407800c0c0b3005eff37002f
:104d4c00e4874700889fbe008a9fbe008c9fbe00f0
:104d5c008e1f78000005be00020478006011b800b8
:104d6c00a8ee0700e00f500003003d000bf0a2007e
:104d7c001cc0b3000300370004c2b300045c78000d
:104d8c000046eb00a2702d0033ba23000a00be00cf
:104d9c00fded07000005be008004eb0006003700a7
:104dac0002002000031224000a00be0053ee07008c
:104dbc000005be008904e800020020000312240054
:104dcc000a00be0091ee0700e00f5000f4ff3d001a
:104ddc00e3821400050278000803780007c2b300d0
:104dec0001003700075b78000402e900e10f420084
:104dfc00fcff3a0005044400e04f5600020032006c
:104e0c00d4c2b300045c780064c244001c002000cf
:104e1c000482fb0084bf9f003ec2b3001b0037001e
:104e2c000a00be007bee0700800678006168b900be
:104e3c00b4ee07000001be000a00be00d1ed070071
:104e4c000802e800e98f5600020034000e4c78008e
:104e5c000200370005c3b30005cc460004047800fb
:104e6c00e08f540003003a0004047800e4c2b3005d
:104e7c00045c78000200200003122400fbee070003
:104e8c000005be008904e9000c06e8008fba970003
:104e9c00850f5600e2ff3500004ceb004f07780001
:104eac004f06be004f05be004f04be004f00b100c0
:104ebc0000000600881f78000004780008007800c5
:104ecc009af007000000e9000000440003003700de
:104edc0018427800105c780004507800800f540061
:104eec00fbff39004f04780000000600889fbe00cd
:104efc008a1f78000005780081447800020478004d
:104f0c000941e90005c3b30008027800055a78008e
:104f1c00055a780085c2e900055a78008a027800a3
:104f2c0005f0a7008502ea0084037800a6002000a3
:104f3c00110009008602d8008101780080027800f7
:104f4c0000c3b30080db41008944e900f8ff3a005c
:104f5c008282fb008502e800050242008402e80020
:104f6c00d6c2b300e00f55000100350006c2b300f5
:104f7c00064a7800804aeb0008007800cdff070055
:104f8c0006c3b300e5c2b30004c2b300010037008e
:104f9c00044c7800d84f130003003a00984390005b
:104fac0085cf5300faff3a004f0578004f04be003e
:104fbc0000000600f08f2f004427b6002ca3ef0052
:104fcc00c822a80080ff2f008421b60014342000d2
:104fdc00140c8800040c88008461a900140c88004f
:104fec00240c80000400a1006400b300240c880091
:104ffc0085a1a80011e1a9001021a90010c1a900e8
:10500c0011a1a800f0fc2f001021b6000002eb004b
:10501c0034088800256820006508880011e1a80084
:10502c0013e1a9001021a90012c1a90013a1a80025
:10503c001221b6005408880004d027007408880098
:10504c00440580000400a0000410a1000420a0006e
:10505c00440588009500a80013e1a8002c43a90082
:10506c00000e20002023b7002043a800f0cf2f0013
:10507c002023b600f40f2e002519800005026200d3
:10508c0004c0a0002419880004fc2f0025198000fe
:10509c00050262003400b300241988004419800012
:1050ac000400a1000410a0000420a1000430a10001
:1050bc004419880028e3a90085a0a9000007200056
:1050cc00aa20b70095a0a80021e3a800cdfb0700fb
:1050dc008540a9009540a9004382a9004362a9001c
:1050ec004342a9004322a9004302a90042c2a900dd
:1050fc00141280000400a1000410a00014128800f7
:10510c00141280000420a1008401b3001412880042
:10511c0042a2a80041e2a800c842a800c8e2a90027
:10512c002002a90090ff2f002022b60020a2a90087
:10513c002062a900940120004411880023a2a80039
:10514c0023e2a900f0f32f002222b60044058000d0
:10515c0004c0a10004d0a00004e0a1004405880014
:10516c00540580000400a0000410a1000420a1003c
:10517c00540588009580a8009560a80021e2a8003d
:10518c002342a80000000600889fbe00004478005f
:10519c00c5fb0700a9fb070000c8b300bcfb070058
:1051ac00c1fb070008407800b9fb0700befb0700f5
:1051bc00b0fb0700bcfb0700a0fb070010c8b30046
:1051cc00b3fb0700b8fb0700d6fb07008004780090
:1051dc00cefb0700d3fb070000047800c4fb0700dc
:1051ec00a4fb0700c84cdd000884fb0008804400c9
:1051fc004f04be000000060010c0b300e2ff3700f1
:10520c00fdff0700cf80de00beed0700a2702d0071
:10521c0033c2230015ee370020c0b300daff0700bd
:10522c004300de004200dd0000000600faff07002c
:10523c00cf80de00b3ed0700f226210033a8230057
:10524c000aee3700889fbe00004478008104780085
:10525c0095fb070079fb070000c8b3008cfb070027
:10526c0091fb07000840780089fb07008efb0700c4
:10527c004848de0086fb07008bfb070009407800de
:10528c0083fb070088fb07007afb07004f04be0076
:10529c00000006001144800050c0b300e9ff070075
:1052ac0030c0b300b8ff3700faff0700cf80de0034
:1052bc0094ed070042448000534480000fed37000a
:1052cc001144800050c0b300deff070040c0b300a3
:1052dc00adff3700faff0700cf80de0089ed070035
:1052ec00224480003344800004ed370010448800d1
:1052fc008428ef00041a2400344488008828ef0026
:10530c0004f82300544488008000780050c0b30097
:10531c00ccff3700881f7800cb08dd004d00dd0086
:10532c00008040008282fb00c72add00050040009f
:10533c000384fb004344dd00080040000482fb00b2
:10534c0004044000880078000040eb00bdff07001b
:10535c00080078004f047800000006000042780036
:10536c0010c0b3006ce8b7006d48ec006f406000f3
:10537c00e586200095427800854f5000fcff3200f6
:10538c008082fb00f686200004f37a006de8b700fb
:10539c009580a80000000600881f780000047800a3
:1053ac0001003700edff070038407800e04f500057
:1053bc00fcff3a004f04780000000600881f7800bc
:1053cc000004780001003700e4ff07003840780043
:1053dc00e04f5000fcff3a00a0c0b300dfff070015
:1053ec004f04780000000600858520009542780067
:1053fc0094852000144278000010200084cf5200c5
:10540c000a0032005948ec006f40600059e8b700c0
:10541c000080fb00a485200064427800504380008b
:10542c000482fb004800dd00000042000000060082
:10543c00801f7800849fbe00c48620001442780030
:10544c00e04f520004003a0069100900000000000f
:10545c00b402200024118800d586200095427800e3
:10546c00e48620001442780084cf520009003200f8
:10547c006e48ec006f4060006ee8b7000080fb00e7
:10548c00f4862000644278000402fb00241188009a
:10549c0003003700a4002000241188009580a90087
:1054ac008580a9004f02be004f0078000040060026
:1054bc00801f7800849fbe00861f78008560a9003d
:1054cc003511800016118000640363000440200035
:1054dc0001003a00060278002222ab0002003200e2
:1054ec002222a900043020005848ec006f406000d4
:1054fc009685200016437800864f50000500320038
:10550c0058e8b7000080fb00a685200005737800e2
:10551c000100370004202000544388004f0378001a
:10552c004f02be004f007800004006000500280026
:10553c00063b800006826200e00f5200fcff3a003e
:10554c0001002000e30f5000e08f580018003e00cf
:10555c000060010003003700070037000b00370024
:10556c000f003700f40720000440780032e0b70049
:10557c0004e02f000e003700f407200004407800f0
:10558c0032e0b70024e02f0009003700f4072000b8
:10559c000440780032e0b70044e02f0004003700ec
:1055ac00f40720000440780032e0b70064e02f00dc
:1055bc001400ba00000006008102780006002800e2
:1055cc00073b800007026300e00f5200fcff3a002b
:1055dc0086052400063b880001002000e30f5000e4
:1055ec00e08f580018003e000060010003003700f7
:1055fc00070037000b0037000f003700f4072000be
:10560c000440780032e0b70004e02f000e003700b1
:10561c00f40720000440780032e0b70024e02f00ab
:10562c0009003700f40720000440780032e0b7008e
:10563c0044e02f0004003700f407200004407800f9
:10564c0032e0b70064e02f000003eb00060abb0059
:10565c000500fc0056052000363b8800a60a2000f9
:10566c00363b880061e7a800000000000000000045
:10567c0006002800003b800080036300e08f53008d
:10568c00fcff3a0046002400063b8800050abb00dc
:10569c000500fc0054052000343b8800a40a2000bf
:1056ac00343b880061e7a800000000000000000007
:1056bc0004002800063b800086026200e08f520046
:0856cc00fcff3a00000006009b
:020000040000fa
:1056d4008c0800000400000002000000000000002c
:1056e4000000000000080000580000000000000056
:1056f400800800000c0000000000000058080000b2
:1057040028000000000000009008000002000000d3
:0857140000000000000000008d
:020000040000fa
:0200000400fffb
:10fc0000000000000f1e00000020000000000000a7
:020000040000fa
:0200000401f009
:04000c00ffff0000f2
:020000040000fa
:0200000401f009
:040010007bff000072
:020000040000fa
:0200000401f009
:040014006bff00007e
:020000040000fa
:0200000401f009
:04001800bfff000026
:020000040000fa
:0200000401f009
:04001c00feff0000e3
:020000040000fa
:0200000401f009
:040020007fff00005e
:00000001FF
